{
  "contractName": "TrackRewarder",
  "abi": [
    {
      "inputs": [
        {
          "internalType": "contract IERC20",
          "name": "token",
          "type": "address"
        }
      ],
      "stateMutability": "nonpayable",
      "type": "constructor"
    },
    {
      "anonymous": false,
      "inputs": [
        {
          "indexed": true,
          "internalType": "address",
          "name": "beneficiary",
          "type": "address"
        },
        {
          "indexed": false,
          "internalType": "uint256",
          "name": "amountPayed",
          "type": "uint256"
        }
      ],
      "name": "payed",
      "type": "event"
    },
    {
      "anonymous": false,
      "inputs": [
        {
          "indexed": true,
          "internalType": "address",
          "name": "uploader",
          "type": "address"
        },
        {
          "indexed": false,
          "internalType": "bytes32",
          "name": "songMeta",
          "type": "bytes32"
        },
        {
          "indexed": false,
          "internalType": "uint256",
          "name": "now",
          "type": "uint256"
        }
      ],
      "name": "trackAdded",
      "type": "event"
    },
    {
      "anonymous": false,
      "inputs": [
        {
          "indexed": true,
          "internalType": "address",
          "name": "newUploader",
          "type": "address"
        }
      ],
      "name": "uploaderAdded",
      "type": "event"
    },
    {
      "inputs": [
        {
          "internalType": "uint256",
          "name": "",
          "type": "uint256"
        }
      ],
      "name": "metadatas",
      "outputs": [
        {
          "internalType": "bytes32",
          "name": "",
          "type": "bytes32"
        }
      ],
      "stateMutability": "view",
      "type": "function",
      "constant": true
    },
    {
      "inputs": [],
      "name": "owner",
      "outputs": [
        {
          "internalType": "address",
          "name": "",
          "type": "address"
        }
      ],
      "stateMutability": "view",
      "type": "function",
      "constant": true
    },
    {
      "inputs": [
        {
          "internalType": "uint256",
          "name": "a",
          "type": "uint256"
        },
        {
          "internalType": "uint256",
          "name": "b",
          "type": "uint256"
        }
      ],
      "name": "safeAdd",
      "outputs": [
        {
          "internalType": "uint256",
          "name": "c",
          "type": "uint256"
        }
      ],
      "stateMutability": "pure",
      "type": "function",
      "constant": true
    },
    {
      "inputs": [
        {
          "internalType": "uint256",
          "name": "a",
          "type": "uint256"
        },
        {
          "internalType": "uint256",
          "name": "b",
          "type": "uint256"
        }
      ],
      "name": "safeDiv",
      "outputs": [
        {
          "internalType": "uint256",
          "name": "c",
          "type": "uint256"
        }
      ],
      "stateMutability": "pure",
      "type": "function",
      "constant": true
    },
    {
      "inputs": [
        {
          "internalType": "uint256",
          "name": "a",
          "type": "uint256"
        },
        {
          "internalType": "uint256",
          "name": "b",
          "type": "uint256"
        }
      ],
      "name": "safeMul",
      "outputs": [
        {
          "internalType": "uint256",
          "name": "c",
          "type": "uint256"
        }
      ],
      "stateMutability": "pure",
      "type": "function",
      "constant": true
    },
    {
      "inputs": [
        {
          "internalType": "uint256",
          "name": "a",
          "type": "uint256"
        },
        {
          "internalType": "uint256",
          "name": "b",
          "type": "uint256"
        }
      ],
      "name": "safeSub",
      "outputs": [
        {
          "internalType": "uint256",
          "name": "c",
          "type": "uint256"
        }
      ],
      "stateMutability": "pure",
      "type": "function",
      "constant": true
    },
    {
      "inputs": [
        {
          "internalType": "uint256",
          "name": "",
          "type": "uint256"
        }
      ],
      "name": "uploaders",
      "outputs": [
        {
          "internalType": "address",
          "name": "",
          "type": "address"
        }
      ],
      "stateMutability": "view",
      "type": "function",
      "constant": true
    },
    {
      "inputs": [
        {
          "internalType": "address",
          "name": "newUploader",
          "type": "address"
        }
      ],
      "name": "addUploader",
      "outputs": [
        {
          "internalType": "address",
          "name": "",
          "type": "address"
        }
      ],
      "stateMutability": "nonpayable",
      "type": "function"
    },
    {
      "inputs": [
        {
          "internalType": "address",
          "name": "uploader",
          "type": "address"
        }
      ],
      "name": "removeUploader",
      "outputs": [
        {
          "internalType": "address",
          "name": "",
          "type": "address"
        }
      ],
      "stateMutability": "nonpayable",
      "type": "function"
    },
    {
      "inputs": [
        {
          "internalType": "address",
          "name": "uploader",
          "type": "address"
        },
        {
          "internalType": "bytes32",
          "name": "songBuffer",
          "type": "bytes32"
        }
      ],
      "name": "addTrack",
      "outputs": [
        {
          "internalType": "bytes32",
          "name": "meta",
          "type": "bytes32"
        }
      ],
      "stateMutability": "nonpayable",
      "type": "function"
    },
    {
      "inputs": [
        {
          "internalType": "bytes32",
          "name": "Trackmeta",
          "type": "bytes32"
        }
      ],
      "name": "seeTrackDetails",
      "outputs": [
        {
          "internalType": "address",
          "name": "",
          "type": "address"
        },
        {
          "internalType": "uint256",
          "name": "",
          "type": "uint256"
        }
      ],
      "stateMutability": "view",
      "type": "function",
      "constant": true
    },
    {
      "inputs": [],
      "name": "checkMyBuffers",
      "outputs": [
        {
          "internalType": "bytes32[]",
          "name": "",
          "type": "bytes32[]"
        }
      ],
      "stateMutability": "view",
      "type": "function",
      "constant": true
    },
    {
      "inputs": [],
      "name": "checkPendingTokens",
      "outputs": [
        {
          "internalType": "uint256",
          "name": "",
          "type": "uint256"
        }
      ],
      "stateMutability": "view",
      "type": "function",
      "constant": true
    },
    {
      "inputs": [
        {
          "internalType": "address",
          "name": "tokenOwner",
          "type": "address"
        }
      ],
      "name": "remAllowance",
      "outputs": [
        {
          "internalType": "uint256",
          "name": "",
          "type": "uint256"
        }
      ],
      "stateMutability": "view",
      "type": "function",
      "constant": true
    },
    {
      "inputs": [
        {
          "internalType": "address",
          "name": "_to",
          "type": "address"
        }
      ],
      "name": "getTokens",
      "outputs": [
        {
          "internalType": "uint256",
          "name": "",
          "type": "uint256"
        }
      ],
      "stateMutability": "nonpayable",
      "type": "function"
    }
  ],
  "bytecode": "0x608060405234801561001057600080fd5b506040516116b33803806116b38339818101604052602081101561003357600080fd5b8101908080519060200190929190505050600160008190555033600260006101000a81548173ffffffffffffffffffffffffffffffffffffffff021916908373ffffffffffffffffffffffffffffffffffffffff16021790555080600160006101000a81548173ffffffffffffffffffffffffffffffffffffffff021916908373ffffffffffffffffffffffffffffffffffffffff160217905550506115d5806100de6000396000f3fe608060405234801561001057600080fd5b50600436106100f55760003560e01c806397c39e4c11610097578063e6a6371111610066578063e6a63711146104ce578063e6cb901314610543578063e73496cd1461058f578063fe167add146105d1576100f5565b806397c39e4c146103cc578063a293d1e8146103ea578063b5931f7c14610436578063d05c78da14610482576100f5565b8063688c5ab3116100d3578063688c5ab31461025a57806384115432146102b25780638b25321a146103145780638da5cb5b14610382576100f5565b806339a88307146100fa578063450efe211461017e57806348bbde5d146101d6575b600080fd5b61013c6004803603602081101561011057600080fd5b81019080803573ffffffffffffffffffffffffffffffffffffffff169060200190929190505050610630565b604051808273ffffffffffffffffffffffffffffffffffffffff1673ffffffffffffffffffffffffffffffffffffffff16815260200191505060405180910390f35b6101c06004803603602081101561019457600080fd5b81019080803573ffffffffffffffffffffffffffffffffffffffff169060200190929190505050610755565b6040518082815260200191505060405180910390f35b610218600480360360208110156101ec57600080fd5b81019080803573ffffffffffffffffffffffffffffffffffffffff169060200190929190505050610766565b604051808273ffffffffffffffffffffffffffffffffffffffff1673ffffffffffffffffffffffffffffffffffffffff16815260200191505060405180910390f35b61029c6004803603602081101561027057600080fd5b81019080803573ffffffffffffffffffffffffffffffffffffffff169060200190929190505050610a80565b6040518082815260200191505060405180910390f35b6102fe600480360360408110156102c857600080fd5b81019080803573ffffffffffffffffffffffffffffffffffffffff16906020019092919080359060200190929190505050610b97565b6040518082815260200191505060405180910390f35b6103406004803603602081101561032a57600080fd5b810190808035906020019092919050505061101a565b604051808273ffffffffffffffffffffffffffffffffffffffff1673ffffffffffffffffffffffffffffffffffffffff16815260200191505060405180910390f35b61038a611056565b604051808273ffffffffffffffffffffffffffffffffffffffff1673ffffffffffffffffffffffffffffffffffffffff16815260200191505060405180910390f35b6103d461107c565b6040518082815260200191505060405180910390f35b6104206004803603604081101561040057600080fd5b8101908080359060200190929190803590602001909291905050506110c6565b6040518082815260200191505060405180910390f35b61046c6004803603604081101561044c57600080fd5b8101908080359060200190929190803590602001909291905050506110e0565b6040518082815260200191505060405180910390f35b6104b86004803603604081101561049857600080fd5b810190808035906020019092919080359060200190929190505050611100565b6040518082815260200191505060405180910390f35b6104fa600480360360208110156104e457600080fd5b810190808035906020019092919050505061112d565b604051808373ffffffffffffffffffffffffffffffffffffffff1673ffffffffffffffffffffffffffffffffffffffff1681526020018281526020019250505060405180910390f35b6105796004803603604081101561055957600080fd5b810190808035906020019092919080359060200190929190505050611187565b6040518082815260200191505060405180910390f35b6105bb600480360360208110156105a557600080fd5b81019080803590602001909291905050506111a1565b6040518082815260200191505060405180910390f35b6105d96111c2565b6040518080602001828103825283818151815260200191508051906020019060200280838360005b8381101561061c578082015181840152602081019050610601565b505050509050019250505060405180910390f35b6000600260009054906101000a900473ffffffffffffffffffffffffffffffffffffffff1673ffffffffffffffffffffffffffffffffffffffff163373ffffffffffffffffffffffffffffffffffffffff16146106f5576040517f08c379a00000000000000000000000000000000000000000000000000000000081526004018080602001828103825260158152602001807f796f7520617265206e6f7420746865206f776e6572000000000000000000000081525060200191505060405180910390fd5b6000600760008473ffffffffffffffffffffffffffffffffffffffff1673ffffffffffffffffffffffffffffffffffffffff16815260200190815260200160002060010160146101000a81548160ff021916908315150217905550919050565b600061076082611308565b50919050565b6000600260009054906101000a900473ffffffffffffffffffffffffffffffffffffffff1673ffffffffffffffffffffffffffffffffffffffff163373ffffffffffffffffffffffffffffffffffffffff161461082b576040517f08c379a00000000000000000000000000000000000000000000000000000000081526004018080602001828103825260158152602001807f796f7520617265206e6f7420746865206f776e6572000000000000000000000081525060200191505060405180910390fd5b8160001515600760008373ffffffffffffffffffffffffffffffffffffffff1673ffffffffffffffffffffffffffffffffffffffff16815260200190815260200160002060010160149054906101000a900460ff161515146108f5576040517f08c379a000000000000000000000000000000000000000000000000000000000815260040180806020018281038252601b8152602001807f796f752061726520616c726561647920616e2075706c6f61646572000000000081525060200191505060405180910390fd5b82600760008573ffffffffffffffffffffffffffffffffffffffff1673ffffffffffffffffffffffffffffffffffffffff16815260200190815260200160002060010160006101000a81548173ffffffffffffffffffffffffffffffffffffffff021916908373ffffffffffffffffffffffffffffffffffffffff1602179055506001600760008573ffffffffffffffffffffffffffffffffffffffff1673ffffffffffffffffffffffffffffffffffffffff16815260200190815260200160002060010160146101000a81548160ff0219169083151502179055506004839080600181540180825580915050600190039060005260206000200160009091909190916101000a81548173ffffffffffffffffffffffffffffffffffffffff021916908373ffffffffffffffffffffffffffffffffffffffff1602179055508273ffffffffffffffffffffffffffffffffffffffff167facb500cd24cee8b05023d4b47481081a963283af5588a80b662eee69ce266be960405160405180910390a282915050919050565b6000600160009054906101000a900473ffffffffffffffffffffffffffffffffffffffff1673ffffffffffffffffffffffffffffffffffffffff1663dd62ed3e83306040518363ffffffff1660e01b8152600401808373ffffffffffffffffffffffffffffffffffffffff1673ffffffffffffffffffffffffffffffffffffffff1681526020018273ffffffffffffffffffffffffffffffffffffffff1673ffffffffffffffffffffffffffffffffffffffff1681526020019250505060206040518083038186803b158015610b5557600080fd5b505afa158015610b69573d6000803e3d6000fd5b505050506040513d6020811015610b7f57600080fd5b81019080805190602001909291905050509050919050565b60003360011515600760008373ffffffffffffffffffffffffffffffffffffffff1673ffffffffffffffffffffffffffffffffffffffff16815260200190815260200160002060010160149054906101000a900460ff16151514610c46576040517f08c379a000000000000000000000000000000000000000000000000000000000815260040180806020018281038252602b815260200180611551602b913960400191505060405180910390fd5b60026000541415610cbf576040517f08c379a000000000000000000000000000000000000000000000000000000000815260040180806020018281038252601f8152602001807f5265656e7472616e637947756172643a207265656e7472616e742063616c6c0081525060200191505060405180910390fd5b60026000819055504284604051602001808381526020018273ffffffffffffffffffffffffffffffffffffffff1673ffffffffffffffffffffffffffffffffffffffff1660601b81526014019250505060405160208183030381529060405280519060200120915083600860003373ffffffffffffffffffffffffffffffffffffffff1673ffffffffffffffffffffffffffffffffffffffff16815260200190815260200160002060010160006101000a81548173ffffffffffffffffffffffffffffffffffffffff021916908373ffffffffffffffffffffffffffffffffffffffff160217905550816009600084815260200190815260200160002060000181905550836009600084815260200190815260200160002060010160006101000a81548173ffffffffffffffffffffffffffffffffffffffff021916908373ffffffffffffffffffffffffffffffffffffffff1602179055504260096000848152602001908152602001600020600201819055508373ffffffffffffffffffffffffffffffffffffffff167fce6281af871eb1a16dead7916eeb865bf4d1c3c23f0b7ef1defc9b643cf265158342604051808381526020018281526020019250505060405180910390a26005829080600181540180825580915050600190039060005260206000200160009091909190915055600760003373ffffffffffffffffffffffffffffffffffffffff1673ffffffffffffffffffffffffffffffffffffffff16815260200190815260200160002060000160008154809291906001019190505550610f59600a60003373ffffffffffffffffffffffffffffffffffffffff1673ffffffffffffffffffffffffffffffffffffffff16815260200190815260200160002060020154610f546001611535565b611187565b600a60003373ffffffffffffffffffffffffffffffffffffffff1673ffffffffffffffffffffffffffffffffffffffff16815260200190815260200160002060020181905550600760003373ffffffffffffffffffffffffffffffffffffffff1673ffffffffffffffffffffffffffffffffffffffff16815260200190815260200160002060030183908060018154018082558091505060019003906000526020600020016000909190919091505581915060016000819055505092915050565b6004818154811061102757fe5b906000526020600020016000915054906101000a900473ffffffffffffffffffffffffffffffffffffffff1681565b600260009054906101000a900473ffffffffffffffffffffffffffffffffffffffff1681565b6000600a60003373ffffffffffffffffffffffffffffffffffffffff1673ffffffffffffffffffffffffffffffffffffffff16815260200190815260200160002060020154905090565b6000828211156110d557600080fd5b818303905092915050565b60008082116110ee57600080fd5b8183816110f757fe5b04905092915050565b60008183029050600083148061111e57508183828161111b57fe5b04145b61112757600080fd5b92915050565b6000806009600084815260200190815260200160002060010160009054906101000a900473ffffffffffffffffffffffffffffffffffffffff16600960008581526020019081526020016000206002015491509150915091565b600081830190508281101561119b57600080fd5b92915050565b600581815481106111ae57fe5b906000526020600020016000915090505481565b60603360011515600760008373ffffffffffffffffffffffffffffffffffffffff1673ffffffffffffffffffffffffffffffffffffffff16815260200190815260200160002060010160149054906101000a900460ff16151514611271576040517f08c379a000000000000000000000000000000000000000000000000000000000815260040180806020018281038252602b815260200180611551602b913960400191505060405180910390fd5b600760003373ffffffffffffffffffffffffffffffffffffffff1673ffffffffffffffffffffffffffffffffffffffff1681526020019081526020016000206003018054806020026020016040519081016040528092919081815260200182805480156112fd57602002820191906000526020600020905b8154815260200190600101908083116112e9575b505050505091505090565b6000816001600a60008373ffffffffffffffffffffffffffffffffffffffff1673ffffffffffffffffffffffffffffffffffffffff1681526020019081526020016000206002015410156113a7576040517f08c379a000000000000000000000000000000000000000000000000000000000815260040180806020018281038252602481526020018061157c6024913960400191505060405180910390fd5b60006113b161107c565b9050600160009054906101000a900473ffffffffffffffffffffffffffffffffffffffff1673ffffffffffffffffffffffffffffffffffffffff1663a9059cbb85836040518363ffffffff1660e01b8152600401808373ffffffffffffffffffffffffffffffffffffffff1673ffffffffffffffffffffffffffffffffffffffff16815260200182815260200192505050602060405180830381600087803b15801561145c57600080fd5b505af1158015611470573d6000803e3d6000fd5b505050506040513d602081101561148657600080fd5b8101908080519060200190929190505050506000600a60003373ffffffffffffffffffffffffffffffffffffffff1673ffffffffffffffffffffffffffffffffffffffff168152602001908152602001600020600201819055508373ffffffffffffffffffffffffffffffffffffffff167f6c17c54911fedc39201d062e095068babd3e155c8bb8e22ceaac19250b745d80826040518082815260200191505060405180910390a25050919050565b60008060129050600081600a0a84029050809250505091905056fe796f752068617665206e6f74206265656e2061637469766174656420746f2075706c6f616420736f6e6773796f7520646f206e6f74206861766520616e7920746f6b656e7320746f2072656465656da26469706673582212200952ce3da116da299f7c9a29438092f29a4434207ff3b6748de08cb6e8e76dd364736f6c63430006020033",
  "source": "// SPDX-License-Identifier: MIT OR Apache-2.0\npragma solidity ^0.6.2;\n\n//pragma experimental ABIEncoderV2;\n//import \"../node_modules/@openzeppelin/contracts/token/ERC20/ERC20.sol\";\nimport \"../node_modules/@openzeppelin/contracts/token/ERC20/IERC20.sol\";\nimport \"../node_modules/@openzeppelin/contracts/utils/ReentrancyGuard.sol\";\n//import \"../node_modules/@opengsn/gsn/contracts/BaseRelayRecipient.sol\";\n//import \"../node_modules/@opengsn/gsn/contracts/interfaces/IKnowForwarderAddress.sol\";\n\ncontract SafeMath {\n    function safeAdd(uint a, uint b) public pure returns (uint c) {\n        c = a + b;\n        require(c >= a);\n    }\n    function safeSub(uint a, uint b) public pure returns (uint c) {\n        require(b <= a);\n        c = a - b;\n    }\n    function safeMul(uint a, uint b) public pure returns (uint c) {\n        c = a * b;\n        require(a == 0 || c / a == b);\n    }\n    function safeDiv(uint a, uint b) public pure returns (uint c) {\n        require(b > 0);\n        c = a / b;\n}}\n\ncontract TrackRewarder is SafeMath,ReentrancyGuard{\n\n\n\n\nIERC20 private _token;\n    address public owner;\n    uint _bal;\n\nevent trackAdded(address indexed uploader,bytes32 songMeta,uint now);\nevent payed(address indexed beneficiary, uint256 amountPayed);\nevent uploaderAdded(address indexed newUploader);\nconstructor (IERC20 token) public {\n    owner = msg.sender;\n    _token = token;\n}\n\n\n\n\nstruct track{\nbytes32 metadata;\naddress  owner;\nuint timeUploaded;\n}\n\nmodifier onlyOwner{\n    require(msg.sender == owner, \"you are not the owner\");\n        _;\n}\n\nmodifier notUploader(address target){\n    require(Uploaders[target].active==false,\"you are already an uploader\");\n    _;\n}\n\nmodifier anUploader(address _targ){\n    require(Uploaders[_targ].active==true,'you have not been activated to upload songs');\n    _;\n}\n\nmodifier notEmpty(address _targ){\n    require(unclaimedTokens[_targ].earned>=1,\"you do not have any tokens to redeem\");\n    _;\n}\n\n\n\n\nstruct Uploader{\n    uint _tracks;\n    address _add;\n    bool active;\n    uint earned;\n    bytes32[] buffers;\n}\n\n\naddress[] public uploaders;\nbytes32[] public metadatas;\nbytes32[] songBuffers;\n\n//mapping(uint=>Uploader) tokenBalance;\nmapping(address=>Uploader) Uploaders;\nmapping(address=>track) trackOwners;\nmapping(bytes32=>track) TrackMetas;\nmapping(address=>Uploader) unclaimedTokens;\n\nfunction toDecimal(uint _tokens) internal pure returns(uint){\n     uint decimalss = 18;\n      uint  _totalSupplys = (_tokens)*10**uint(decimalss);\n      return _totalSupplys;\n}\n\nfunction addUploader(address newUploader) public onlyOwner notUploader(newUploader) returns(address){\n    Uploaders[newUploader]._add=newUploader;\n    Uploaders[newUploader].active=true;\n    \n    uploaders.push(newUploader);\n    emit uploaderAdded(newUploader);\n    return newUploader;\n    \n}\n\nfunction removeUploader(address uploader) public onlyOwner returns(address){\n     Uploaders[uploader].active=false;\n     \n     \n     \n}\n\n\n//allows an authorized uploader to upload songs\n//songBuffer is the ipfs cid that will be returned in the frontend\n//meta is a precalculated hash that will be stored on the contract\nfunction addTrack(address uploader,bytes32 songBuffer) public anUploader(msg.sender) nonReentrant returns(bytes32 meta){\n    meta = (keccak256 (abi.encodePacked (now ,uploader)));\n    trackOwners[(msg.sender)].owner = uploader;\n    TrackMetas[meta].metadata = meta;\n    TrackMetas[meta].owner=uploader;\n    TrackMetas[meta].timeUploaded=now;\n    emit trackAdded (uploader,meta,now);\n    metadatas.push(meta);\n    Uploaders[msg.sender]._tracks++;\n    unclaimedTokens[msg.sender].earned=safeAdd(unclaimedTokens[msg.sender].earned,toDecimal(1));\n    Uploaders[msg.sender].buffers.push(songBuffer);\n    return(meta);\n   \n}\n\n//allows anyone to see the owner of a track and when it was uploaded \nfunction seeTrackDetails(bytes32 Trackmeta) public view returns(address,uint){\n    return (TrackMetas[Trackmeta].owner,TrackMetas[Trackmeta].timeUploaded);\n}\n\n//allows an uploader to see all his song buffers/cids\nfunction checkMyBuffers() public anUploader(msg.sender) view returns(bytes32[] memory){\n   return Uploaders[msg.sender].buffers;\n}\n\n//internal function to redeem tokens\n    function redeem(address _artist) internal notEmpty(_artist) returns(bool){\n        uint toSend=checkPendingTokens();\n        _token.transfer(_artist,toSend);\n         unclaimedTokens[msg.sender].earned=0;\n         emit payed(_artist,toSend);\n        \n        \n    }\n    \n    \n    //allows an uploader to see the tokens he has not claimed yet\n    function checkPendingTokens() public view returns(uint){\n        \n        return unclaimedTokens[msg.sender].earned;\n    }\n    \n    //a simple function to check the contract allowance\n    function remAllowance(address tokenOwner) public view returns(uint256){\n      return  _token.allowance(tokenOwner,address(this));\n    }\n    \n    //main function that transfers all unclaimed tokens to the uploader\n    function getTokens(address _to) public  returns(uint) {\n        redeem(_to);\n       \n    }\n    \n   \n\n  /*\tfunction versionRecipient() external virtual view override returns (string memory) {\n\t\treturn \"1.0\";\n\t}\n\n   function getTrustedForwarder() public view override returns(address) {\n\t\treturn trustedForwarder;\n\t}\n    */\n}",
  "sourcePath": "/home/null/Videos/SOUNDP/SNPCORE/contracts/SoundP.sol",
  "compiler": {
    "name": "solc",
    "version": "0.6.2+commit.bacdbe57.Emscripten.clang"
  },
  "schemaVersion": "3.3.2",
  "updatedAt": "2021-01-05T20:20:29.275Z",
  "networkType": "ethereum",
  "devdoc": {
    "methods": {}
  },
  "userdoc": {
    "methods": {}
  }
}